{
  "contractName": "Adoption2",
  "abi": [
    {
      "inputs": [
        {
          "internalType": "uint256",
          "name": "",
          "type": "uint256"
        }
      ],
      "name": "adopters",
      "outputs": [
        {
          "internalType": "string",
          "name": "firstName",
          "type": "string"
        },
        {
          "internalType": "string",
          "name": "lastName",
          "type": "string"
        },
        {
          "internalType": "address",
          "name": "accountAddress",
          "type": "address"
        }
      ],
      "stateMutability": "view",
      "type": "function"
    },
    {
      "inputs": [
        {
          "internalType": "uint256",
          "name": "petId",
          "type": "uint256"
        },
        {
          "internalType": "string",
          "name": "firstName",
          "type": "string"
        },
        {
          "internalType": "string",
          "name": "lastName",
          "type": "string"
        }
      ],
      "name": "adopt",
      "outputs": [
        {
          "internalType": "uint256",
          "name": "",
          "type": "uint256"
        }
      ],
      "stateMutability": "nonpayable",
      "type": "function"
    },
    {
      "inputs": [],
      "name": "getAdopters",
      "outputs": [
        {
          "components": [
            {
              "internalType": "string",
              "name": "firstName",
              "type": "string"
            },
            {
              "internalType": "string",
              "name": "lastName",
              "type": "string"
            },
            {
              "internalType": "address",
              "name": "accountAddress",
              "type": "address"
            }
          ],
          "internalType": "struct Adoption2.Adopter[16]",
          "name": "",
          "type": "tuple[16]"
        }
      ],
      "stateMutability": "view",
      "type": "function"
    }
  ],
  "bytecode": "0x608060405234801561001057600080fd5b50610b8c806100206000396000f3fe608060405234801561001057600080fd5b50600436106100415760003560e01c80633de4eb171461004657806343ae80d314610064578063aaa0569114610096575b600080fd5b61004e6100c6565b60405161005b91906108bd565b60405180910390f35b61007e60048036038101906100799190610696565b610292565b60405161008d939291906108df565b60405180910390f35b6100b060048036038101906100ab91906106bf565b6103f2565b6040516100bd9190610924565b60405180910390f35b6100ce610511565b6000601080602002604051908101604052809291906000905b828210156102895783826003020160405180606001604052908160008201805461011090610a6d565b80601f016020809104026020016040519081016040528092919081815260200182805461013c90610a6d565b80156101895780601f1061015e57610100808354040283529160200191610189565b820191906000526020600020905b81548152906001019060200180831161016c57829003601f168201915b505050505081526020016001820180546101a290610a6d565b80601f01602080910402602001604051908101604052809291908181526020018280546101ce90610a6d565b801561021b5780601f106101f05761010080835404028352916020019161021b565b820191906000526020600020905b8154815290600101906020018083116101fe57829003601f168201915b505050505081526020016002820160009054906101000a900473ffffffffffffffffffffffffffffffffffffffff1673ffffffffffffffffffffffffffffffffffffffff1673ffffffffffffffffffffffffffffffffffffffff1681525050815260200190600101906100e7565b50505050905090565b600081601081106102a257600080fd5b600302016000915090508060000180546102bb90610a6d565b80601f01602080910402602001604051908101604052809291908181526020018280546102e790610a6d565b80156103345780601f1061030957610100808354040283529160200191610334565b820191906000526020600020905b81548152906001019060200180831161031757829003601f168201915b50505050509080600101805461034990610a6d565b80601f016020809104026020016040519081016040528092919081815260200182805461037590610a6d565b80156103c25780601f10610397576101008083540402835291602001916103c2565b820191906000526020600020905b8154815290600101906020018083116103a557829003601f168201915b5050505050908060020160009054906101000a900473ffffffffffffffffffffffffffffffffffffffff16905083565b60008084101580156104055750600f8411155b61040e57600080fd5b600060405180606001604052808581526020018481526020013373ffffffffffffffffffffffffffffffffffffffff168152509050806000866010811061047e577f4e487b7100000000000000000000000000000000000000000000000000000000600052603260045260246000fd5b60030201600082015181600001908051906020019061049e92919061053f565b5060208201518160010190805190602001906104bb92919061053f565b5060408201518160020160006101000a81548173ffffffffffffffffffffffffffffffffffffffff021916908373ffffffffffffffffffffffffffffffffffffffff160217905550905050849150509392505050565b6040518061020001604052806010905b6105296105c5565b8152602001906001900390816105215790505090565b82805461054b90610a6d565b90600052602060002090601f01602090048101928261056d57600085556105b4565b82601f1061058657805160ff19168380011785556105b4565b828001600101855582156105b4579182015b828111156105b3578251825591602001919060010190610598565b5b5090506105c191906105fc565b5090565b60405180606001604052806060815260200160608152602001600073ffffffffffffffffffffffffffffffffffffffff1681525090565b5b808211156106155760008160009055506001016105fd565b5090565b600061062c61062784610964565b61093f565b90508281526020810184848401111561064457600080fd5b61064f848285610a2b565b509392505050565b600082601f83011261066857600080fd5b8135610678848260208601610619565b91505092915050565b60008135905061069081610b3f565b92915050565b6000602082840312156106a857600080fd5b60006106b684828501610681565b91505092915050565b6000806000606084860312156106d457600080fd5b60006106e286828701610681565b935050602084013567ffffffffffffffff8111156106ff57600080fd5b61070b86828701610657565b925050604084013567ffffffffffffffff81111561072857600080fd5b61073486828701610657565b9150509250925092565b600061074a8383610857565b905092915050565b61075b816109ef565b82525050565b61076a816109ef565b82525050565b600061077b8261099f565b61078581856109c2565b93508360208202850161079785610995565b8060005b858110156107d357848403895281516107b4858261073e565b94506107bf836109b5565b925060208a0199505060018101905061079b565b50829750879550505050505092915050565b60006107f0826109aa565b6107fa81856109cd565b935061080a818560208601610a3a565b61081381610b2e565b840191505092915050565b6000610829826109aa565b61083381856109de565b9350610843818560208601610a3a565b61084c81610b2e565b840191505092915050565b6000606083016000830151848203600086015261087482826107e5565b9150506020830151848203602086015261088e82826107e5565b91505060408301516108a36040860182610752565b508091505092915050565b6108b781610a21565b82525050565b600060208201905081810360008301526108d78184610770565b905092915050565b600060608201905081810360008301526108f9818661081e565b9050818103602083015261090d818561081e565b905061091c6040830184610761565b949350505050565b600060208201905061093960008301846108ae565b92915050565b600061094961095a565b90506109558282610a9f565b919050565b6000604051905090565b600067ffffffffffffffff82111561097f5761097e610aff565b5b61098882610b2e565b9050602081019050919050565b6000819050919050565b600060109050919050565b600081519050919050565b6000602082019050919050565b600081905092915050565b600082825260208201905092915050565b600082825260208201905092915050565b60006109fa82610a01565b9050919050565b600073ffffffffffffffffffffffffffffffffffffffff82169050919050565b6000819050919050565b82818337600083830152505050565b60005b83811015610a58578082015181840152602081019050610a3d565b83811115610a67576000848401525b50505050565b60006002820490506001821680610a8557607f821691505b60208210811415610a9957610a98610ad0565b5b50919050565b610aa882610b2e565b810181811067ffffffffffffffff82111715610ac757610ac6610aff565b5b80604052505050565b7f4e487b7100000000000000000000000000000000000000000000000000000000600052602260045260246000fd5b7f4e487b7100000000000000000000000000000000000000000000000000000000600052604160045260246000fd5b6000601f19601f8301169050919050565b610b4881610a21565b8114610b5357600080fd5b5056fea264697066735822122053198d3f3064677b24e8d4ec0725659830a1fdc3813a0fcc608ffab1f0b077fc64736f6c63430008030033",
  "immutableReferences": {},
  "source": "// SPDX-License-Identifier: MIT\npragma solidity ^0.8.0;\n\ncontract Adoption2 {\n    \n    struct Adopter {\n        string firstName;\n        string lastName;\n        address accountAddress;\n    }\n\n    Adopter[16] public adopters;\n    \n    // Adopting a pet\n    function adopt(\n        uint256 petId,\n        string memory firstName,\n        string memory lastName\n    ) public returns (uint256) {\n        require(petId >= 0 && petId <= 15);\n\n        Adopter memory newAdopter = Adopter(firstName, lastName, msg.sender);\n\n        adopters[petId] = newAdopter;\n\n        return petId;\n    }\n\n    // Retrieving the adopters\n    // Array Getters devuelven solo un valor de una clave determinada.\n    // Nuestra interfaz de usuario necesita actualizar todos los estados\n    // de adopcin de mascotas, pero realizar 16 llamadas a la API no es lo ideal.\n    // Escribimos una funcin para devolver la matriz completa.\n    function getAdopters() public view returns (Adopter[16] memory) {\n        return adopters;\n    }\n}\n",
  "sourcePath": "/Users/luisvidela/Development/EducacionIT/blockchain/clase7/pet-shop-solved/contracts/Adoption2.sol",
  "compiler": {
    "name": "solc",
    "version": "0.8.3+commit.8d00100c.Emscripten.clang"
  },
  "schemaVersion": "3.4.3",
  "updatedAt": "2021-10-12T02:18:58.062Z",
  "devdoc": {
    "kind": "dev",
    "methods": {},
    "version": 1
  },
  "userdoc": {
    "kind": "user",
    "methods": {},
    "version": 1
  }
}